{"abi":[{"type":"constructor","inputs":[{"name":"poolToken","type":"address","internalType":"address"},{"name":"wethToken","type":"address","internalType":"address"},{"name":"liquidityTokenName","type":"string","internalType":"string"},{"name":"liquidityTokenSymbol","type":"string","internalType":"string"}],"stateMutability":"nonpayable"},{"type":"function","name":"allowance","inputs":[{"name":"owner","type":"address","internalType":"address"},{"name":"spender","type":"address","internalType":"address"}],"outputs":[{"name":"","type":"uint256","internalType":"uint256"}],"stateMutability":"view"},{"type":"function","name":"approve","inputs":[{"name":"spender","type":"address","internalType":"address"},{"name":"value","type":"uint256","internalType":"uint256"}],"outputs":[{"name":"","type":"bool","internalType":"bool"}],"stateMutability":"nonpayable"},{"type":"function","name":"balanceOf","inputs":[{"name":"account","type":"address","internalType":"address"}],"outputs":[{"name":"","type":"uint256","internalType":"uint256"}],"stateMutability":"view"},{"type":"function","name":"decimals","inputs":[],"outputs":[{"name":"","type":"uint8","internalType":"uint8"}],"stateMutability":"view"},{"type":"function","name":"deposit","inputs":[{"name":"wethToDeposit","type":"uint256","internalType":"uint256"},{"name":"minimumLiquidityTokensToMint","type":"uint256","internalType":"uint256"},{"name":"maximumPoolTokensToDeposit","type":"uint256","internalType":"uint256"},{"name":"deadline","type":"uint64","internalType":"uint64"}],"outputs":[{"name":"liquidityTokensToMint","type":"uint256","internalType":"uint256"}],"stateMutability":"nonpayable"},{"type":"function","name":"getInputAmountBasedOnOutput","inputs":[{"name":"outputAmount","type":"uint256","internalType":"uint256"},{"name":"inputReserves","type":"uint256","internalType":"uint256"},{"name":"outputReserves","type":"uint256","internalType":"uint256"}],"outputs":[{"name":"inputAmount","type":"uint256","internalType":"uint256"}],"stateMutability":"pure"},{"type":"function","name":"getMinimumWethDepositAmount","inputs":[],"outputs":[{"name":"","type":"uint256","internalType":"uint256"}],"stateMutability":"pure"},{"type":"function","name":"getOutputAmountBasedOnInput","inputs":[{"name":"inputAmount","type":"uint256","internalType":"uint256"},{"name":"inputReserves","type":"uint256","internalType":"uint256"},{"name":"outputReserves","type":"uint256","internalType":"uint256"}],"outputs":[{"name":"outputAmount","type":"uint256","internalType":"uint256"}],"stateMutability":"pure"},{"type":"function","name":"getPoolToken","inputs":[],"outputs":[{"name":"","type":"address","internalType":"address"}],"stateMutability":"view"},{"type":"function","name":"getPoolTokensToDepositBasedOnWeth","inputs":[{"name":"wethToDeposit","type":"uint256","internalType":"uint256"}],"outputs":[{"name":"","type":"uint256","internalType":"uint256"}],"stateMutability":"view"},{"type":"function","name":"getPriceOfOnePoolTokenInWeth","inputs":[],"outputs":[{"name":"","type":"uint256","internalType":"uint256"}],"stateMutability":"view"},{"type":"function","name":"getPriceOfOneWethInPoolTokens","inputs":[],"outputs":[{"name":"","type":"uint256","internalType":"uint256"}],"stateMutability":"view"},{"type":"function","name":"getWeth","inputs":[],"outputs":[{"name":"","type":"address","internalType":"address"}],"stateMutability":"view"},{"type":"function","name":"name","inputs":[],"outputs":[{"name":"","type":"string","internalType":"string"}],"stateMutability":"view"},{"type":"function","name":"sellPoolTokens","inputs":[{"name":"poolTokenAmount","type":"uint256","internalType":"uint256"}],"outputs":[{"name":"wethAmount","type":"uint256","internalType":"uint256"}],"stateMutability":"nonpayable"},{"type":"function","name":"swapExactInput","inputs":[{"name":"inputToken","type":"address","internalType":"contract IERC20"},{"name":"inputAmount","type":"uint256","internalType":"uint256"},{"name":"outputToken","type":"address","internalType":"contract IERC20"},{"name":"minOutputAmount","type":"uint256","internalType":"uint256"},{"name":"deadline","type":"uint64","internalType":"uint64"}],"outputs":[{"name":"output","type":"uint256","internalType":"uint256"}],"stateMutability":"nonpayable"},{"type":"function","name":"swapExactOutput","inputs":[{"name":"inputToken","type":"address","internalType":"contract IERC20"},{"name":"outputToken","type":"address","internalType":"contract IERC20"},{"name":"outputAmount","type":"uint256","internalType":"uint256"},{"name":"deadline","type":"uint64","internalType":"uint64"}],"outputs":[{"name":"inputAmount","type":"uint256","internalType":"uint256"}],"stateMutability":"nonpayable"},{"type":"function","name":"symbol","inputs":[],"outputs":[{"name":"","type":"string","internalType":"string"}],"stateMutability":"view"},{"type":"function","name":"totalLiquidityTokenSupply","inputs":[],"outputs":[{"name":"","type":"uint256","internalType":"uint256"}],"stateMutability":"view"},{"type":"function","name":"totalSupply","inputs":[],"outputs":[{"name":"","type":"uint256","internalType":"uint256"}],"stateMutability":"view"},{"type":"function","name":"transfer","inputs":[{"name":"to","type":"address","internalType":"address"},{"name":"value","type":"uint256","internalType":"uint256"}],"outputs":[{"name":"","type":"bool","internalType":"bool"}],"stateMutability":"nonpayable"},{"type":"function","name":"transferFrom","inputs":[{"name":"from","type":"address","internalType":"address"},{"name":"to","type":"address","internalType":"address"},{"name":"value","type":"uint256","internalType":"uint256"}],"outputs":[{"name":"","type":"bool","internalType":"bool"}],"stateMutability":"nonpayable"},{"type":"function","name":"withdraw","inputs":[{"name":"liquidityTokensToBurn","type":"uint256","internalType":"uint256"},{"name":"minWethToWithdraw","type":"uint256","internalType":"uint256"},{"name":"minPoolTokensToWithdraw","type":"uint256","internalType":"uint256"},{"name":"deadline","type":"uint64","internalType":"uint64"}],"outputs":[],"stateMutability":"nonpayable"},{"type":"event","name":"Approval","inputs":[{"name":"owner","type":"address","indexed":true,"internalType":"address"},{"name":"spender","type":"address","indexed":true,"internalType":"address"},{"name":"value","type":"uint256","indexed":false,"internalType":"uint256"}],"anonymous":false},{"type":"event","name":"LiquidityAdded","inputs":[{"name":"liquidityProvider","type":"address","indexed":true,"internalType":"address"},{"name":"wethDeposited","type":"uint256","indexed":false,"internalType":"uint256"},{"name":"poolTokensDeposited","type":"uint256","indexed":false,"internalType":"uint256"}],"anonymous":false},{"type":"event","name":"LiquidityRemoved","inputs":[{"name":"liquidityProvider","type":"address","indexed":true,"internalType":"address"},{"name":"wethWithdrawn","type":"uint256","indexed":false,"internalType":"uint256"},{"name":"poolTokensWithdrawn","type":"uint256","indexed":false,"internalType":"uint256"}],"anonymous":false},{"type":"event","name":"Swap","inputs":[{"name":"swapper","type":"address","indexed":true,"internalType":"address"},{"name":"tokenIn","type":"address","indexed":false,"internalType":"contract IERC20"},{"name":"amountTokenIn","type":"uint256","indexed":false,"internalType":"uint256"},{"name":"tokenOut","type":"address","indexed":false,"internalType":"contract IERC20"},{"name":"amountTokenOut","type":"uint256","indexed":false,"internalType":"uint256"}],"anonymous":false},{"type":"event","name":"Transfer","inputs":[{"name":"from","type":"address","indexed":true,"internalType":"address"},{"name":"to","type":"address","indexed":true,"internalType":"address"},{"name":"value","type":"uint256","indexed":false,"internalType":"uint256"}],"anonymous":false},{"type":"error","name":"ERC20InsufficientAllowance","inputs":[{"name":"spender","type":"address","internalType":"address"},{"name":"allowance","type":"uint256","internalType":"uint256"},{"name":"needed","type":"uint256","internalType":"uint256"}]},{"type":"error","name":"ERC20InsufficientBalance","inputs":[{"name":"sender","type":"address","internalType":"address"},{"name":"balance","type":"uint256","internalType":"uint256"},{"name":"needed","type":"uint256","internalType":"uint256"}]},{"type":"error","name":"ERC20InvalidApprover","inputs":[{"name":"approver","type":"address","internalType":"address"}]},{"type":"error","name":"ERC20InvalidReceiver","inputs":[{"name":"receiver","type":"address","internalType":"address"}]},{"type":"error","name":"ERC20InvalidSender","inputs":[{"name":"sender","type":"address","internalType":"address"}]},{"type":"error","name":"ERC20InvalidSpender","inputs":[{"name":"spender","type":"address","internalType":"address"}]},{"type":"error","name":"SafeERC20FailedOperation","inputs":[{"name":"token","type":"address","internalType":"address"}]},{"type":"error","name":"TSwapPool__DeadlineHasPassed","inputs":[{"name":"deadline","type":"uint64","internalType":"uint64"}]},{"type":"error","name":"TSwapPool__InvalidToken","inputs":[]},{"type":"error","name":"TSwapPool__MaxPoolTokenDepositTooHigh","inputs":[{"name":"maximumPoolTokensToDeposit","type":"uint256","internalType":"uint256"},{"name":"poolTokensToDeposit","type":"uint256","internalType":"uint256"}]},{"type":"error","name":"TSwapPool__MinLiquidityTokensToMintTooLow","inputs":[{"name":"minimumLiquidityTokensToMint","type":"uint256","internalType":"uint256"},{"name":"liquidityTokensToMint","type":"uint256","internalType":"uint256"}]},{"type":"error","name":"TSwapPool__MustBeMoreThanZero","inputs":[]},{"type":"error","name":"TSwapPool__OutputTooLow","inputs":[{"name":"actual","type":"uint256","internalType":"uint256"},{"name":"min","type":"uint256","internalType":"uint256"}]},{"type":"error","name":"TSwapPool__WethDepositAmountTooLow","inputs":[{"name":"minimumWethDeposit","type":"uint256","internalType":"uint256"},{"name":"wethToDeposit","type":"uint256","internalType":"uint256"}]}],"bytecode":{"object":"0x60c06040525f60055534801562000014575f80fd5b50604051620033373803806200333783398181016040528101906200003a9190620002ba565b818181600390816200004d91906200059e565b5080600490816200005f91906200059e565b5050508273ffffffffffffffffffffffffffffffffffffffff1660808173ffffffffffffffffffffffffffffffffffffffff16815250508373ffffffffffffffffffffffffffffffffffffffff1660a08173ffffffffffffffffffffffffffffffffffffffff16815250505050505062000682565b5f604051905090565b5f80fd5b5f80fd5b5f73ffffffffffffffffffffffffffffffffffffffff82169050919050565b5f6200011082620000e5565b9050919050565b620001228162000104565b81146200012d575f80fd5b50565b5f81519050620001408162000117565b92915050565b5f80fd5b5f80fd5b5f601f19601f8301169050919050565b7f4e487b71000000000000000000000000000000000000000000000000000000005f52604160045260245ffd5b62000196826200014e565b810181811067ffffffffffffffff82111715620001b857620001b76200015e565b5b80604052505050565b5f620001cc620000d4565b9050620001da82826200018b565b919050565b5f67ffffffffffffffff821115620001fc57620001fb6200015e565b5b62000207826200014e565b9050602081019050919050565b5f5b838110156200023357808201518184015260208101905062000216565b5f8484015250505050565b5f620002546200024e84620001df565b620001c1565b9050828152602081018484840111156200027357620002726200014a565b5b6200028084828562000214565b509392505050565b5f82601f8301126200029f576200029e62000146565b5b8151620002b18482602086016200023e565b91505092915050565b5f805f8060808587031215620002d557620002d4620000dd565b5b5f620002e48782880162000130565b9450506020620002f78782880162000130565b935050604085015167ffffffffffffffff8111156200031b576200031a620000e1565b5b620003298782880162000288565b925050606085015167ffffffffffffffff8111156200034d576200034c620000e1565b5b6200035b8782880162000288565b91505092959194509250565b5f81519050919050565b7f4e487b71000000000000000000000000000000000000000000000000000000005f52602260045260245ffd5b5f6002820490506001821680620003b657607f821691505b602082108103620003cc57620003cb62000371565b5b50919050565b5f819050815f5260205f209050919050565b5f6020601f8301049050919050565b5f82821b905092915050565b5f60088302620004307fffffffffffffffffffffffffffffffffffffffffffffffffffffffffffffffff82620003f3565b6200043c8683620003f3565b95508019841693508086168417925050509392505050565b5f819050919050565b5f819050919050565b5f62000486620004806200047a8462000454565b6200045d565b62000454565b9050919050565b5f819050919050565b620004a18362000466565b620004b9620004b0826200048d565b848454620003ff565b825550505050565b5f90565b620004cf620004c1565b620004dc81848462000496565b505050565b5b818110156200050357620004f75f82620004c5565b600181019050620004e2565b5050565b601f82111562000552576200051c81620003d2565b6200052784620003e4565b8101602085101562000537578190505b6200054f6200054685620003e4565b830182620004e1565b50505b505050565b5f82821c905092915050565b5f620005745f198460080262000557565b1980831691505092915050565b5f6200058e838362000563565b9150826002028217905092915050565b620005a98262000367565b67ffffffffffffffff811115620005c557620005c46200015e565b5b620005d182546200039e565b620005de82828562000507565b5f60209050601f83116001811462000614575f8415620005ff578287015190505b6200060b858262000581565b8655506200067a565b601f1984166200062486620003d2565b5f5b828110156200064d5784890151825560018201915060208501945060208101905062000626565b868310156200066d578489015162000669601f89168262000563565b8355505b6001600288020188555050505b505050505050565b60805160a051612c15620007225f395f81816105f50152818161097f01528181610f950152818161117c01528181611273015281816113d40152818161150f015281816115b901528181611ba6015261213001525f818161058c01528181610616015281816108e401528181610edd01528181611131015281816111db0152818161146c0152818161165401528181611b5901526120d90152612c155ff3fe608060405234801561000f575f80fd5b506004361061014b575f3560e01c80636b3c4779116100c1578063a9059cbb1161007a578063a9059cbb146103db578063b7e7fdcc1461040b578063dc0374d114610429578063dd62ed3e14610447578063e29e037814610477578063ff792c96146104a75761014b565b80636b3c47791461030557806370a082311461033557806385b29438146103655780638933da3a146103835780638fd782421461039f57806395d89b41146103bd5761014b565b8063313ce56711610113578063313ce5671461020957806335e6bf53146102275780633dd5e20d146102575780633f163cdf146102875780634b785efe146102a55780634e6d9df8146102d55761014b565b806306fdde031461014f578063095ea7b31461016d578063107c279f1461019d57806318160ddd146101bb57806323b872dd146101d9575b5f80fd5b6101576104d7565b60405161016491906123bc565b60405180910390f35b6101876004803603810190610182919061246d565b610567565b60405161019491906124c5565b60405180910390f35b6101a5610589565b6040516101b291906124ed565b60405180910390f35b6101c36105b0565b6040516101d09190612515565b60405180910390f35b6101f360048036038101906101ee919061252e565b6105b9565b60405161020091906124c5565b60405180910390f35b6102116105e7565b60405161021e9190612599565b60405180910390f35b610241600480360381019061023c91906125b2565b6105ef565b60405161024e9190612515565b60405180910390f35b610271600480360381019061026c9190612655565b610643565b60405161027e9190612515565b60405180910390f35b61028f61083d565b60405161029c9190612515565b60405180910390f35b6102bf60048036038101906102ba91906126cc565b610848565b6040516102cc9190612515565b60405180910390f35b6102ef60048036038101906102ea9190612730565b610afc565b6040516102fc9190612515565b60405180910390f35b61031f600480360381019061031a9190612794565b610cac565b60405161032c9190612515565b60405180910390f35b61034f600480360381019061034a91906127e4565b610d77565b60405161035c9190612515565b60405180910390f35b61036d610dbc565b60405161037a9190612515565b60405180910390f35b61039d600480360381019061039891906126cc565b610dca565b005b6103a76111cc565b6040516103b49190612515565b60405180910390f35b6103c5611313565b6040516103d291906123bc565b60405180910390f35b6103f560048036038101906103f0919061246d565b6113a3565b60405161040291906124c5565b60405180910390f35b6104136113c5565b6040516104209190612515565b60405180910390f35b61043161150c565b60405161043e91906124ed565b60405180910390f35b610461600480360381019061045c919061280f565b611533565b60405161046e9190612515565b60405180910390f35b610491600480360381019061048c91906125b2565b6115b5565b60405161049e9190612515565b60405180910390f35b6104c160048036038101906104bc9190612794565b61170c565b6040516104ce9190612515565b60405180910390f35b6060600380546104e69061287a565b80601f01602080910402602001604051908101604052809291908181526020018280546105129061287a565b801561055d5780601f106105345761010080835404028352916020019161055d565b820191905f5260205f20905b81548152906001019060200180831161054057829003601f168201915b5050505050905090565b5f806105716117c8565b905061057e8185856117cf565b600191505092915050565b5f7f0000000000000000000000000000000000000000000000000000000000000000905090565b5f600254905090565b5f806105c36117c8565b90506105d08582856117e1565b6105db858585611873565b60019150509392505050565b5f6012905090565b5f61063c7f00000000000000000000000000000000000000000000000000000000000000007f00000000000000000000000000000000000000000000000000000000000000008442610afc565b9050919050565b5f845f810361067e576040517f592cd3d200000000000000000000000000000000000000000000000000000000815260040160405180910390fd5b824267ffffffffffffffff168167ffffffffffffffff1610156106d857806040517ff20357c30000000000000000000000000000000000000000000000000000000081526004016106cf91906128b9565b60405180910390fd5b5f8873ffffffffffffffffffffffffffffffffffffffff166370a08231306040518263ffffffff1660e01b815260040161071291906124ed565b602060405180830381865afa15801561072d573d5f803e3d5ffd5b505050506040513d601f19601f8201168201806040525081019061075191906128e6565b90505f8773ffffffffffffffffffffffffffffffffffffffff166370a08231306040518263ffffffff1660e01b815260040161078d91906124ed565b602060405180830381865afa1580156107a8573d5f803e3d5ffd5b505050506040513d601f19601f820116820180604052508101906107cc91906128e6565b90505f6107da8a8484610cac565b9050878110156108235780886040517ffeb54daf00000000000000000000000000000000000000000000000000000000815260040161081a929190612911565b60405180910390fd5b61082f8b8b8b84611963565b505050505095945050505050565b5f633b9aca00905090565b5f845f8103610883576040517f592cd3d200000000000000000000000000000000000000000000000000000000815260040160405180910390fd5b633b9aca008610156108d257633b9aca00866040517f1da6b0140000000000000000000000000000000000000000000000000000000081526004016108c9929190612911565b60405180910390fd5b5f6108db610dbc565b1115610ae4575f7f000000000000000000000000000000000000000000000000000000000000000073ffffffffffffffffffffffffffffffffffffffff166370a08231306040518263ffffffff1660e01b815260040161093b91906124ed565b602060405180830381865afa158015610956573d5f803e3d5ffd5b505050506040513d601f19601f8201168201806040525081019061097a91906128e6565b90505f7f000000000000000000000000000000000000000000000000000000000000000073ffffffffffffffffffffffffffffffffffffffff166370a08231306040518263ffffffff1660e01b81526004016109d691906124ed565b602060405180830381865afa1580156109f1573d5f803e3d5ffd5b505050506040513d601f19601f82011682018060405250810190610a1591906128e6565b90505f610a21896115b5565b905080871015610a6a5786816040517f87536714000000000000000000000000000000000000000000000000000000008152600401610a61929190612911565b60405180910390fd5b82610a73610dbc565b8a610a7e9190612965565b610a8891906129d3565b945087851015610ad15787856040517f73b0b2a2000000000000000000000000000000000000000000000000000000008152600401610ac8929190612911565b60405180910390fd5b610adc898287611af7565b505050610af3565b610aef868588611af7565b8591505b50949350505050565b5f825f8103610b37576040517f592cd3d200000000000000000000000000000000000000000000000000000000815260040160405180910390fd5b824267ffffffffffffffff168167ffffffffffffffff161015610b9157806040517ff20357c3000000000000000000000000000000000000000000000000000000008152600401610b8891906128b9565b60405180910390fd5b5f8773ffffffffffffffffffffffffffffffffffffffff166370a08231306040518263ffffffff1660e01b8152600401610bcb91906124ed565b602060405180830381865afa158015610be6573d5f803e3d5ffd5b505050506040513d601f19601f82011682018060405250810190610c0a91906128e6565b90505f8773ffffffffffffffffffffffffffffffffffffffff166370a08231306040518263ffffffff1660e01b8152600401610c4691906124ed565b602060405180830381865afa158015610c61573d5f803e3d5ffd5b505050506040513d601f19601f82011682018060405250810190610c8591906128e6565b9050610c9287838361170c565b9450610ca089868a8a611963565b50505050949350505050565b5f835f8103610ce7576040517f592cd3d200000000000000000000000000000000000000000000000000000000815260040160405180910390fd5b825f8103610d21576040517f592cd3d200000000000000000000000000000000000000000000000000000000815260040160405180910390fd5b5f6103e587610d309190612965565b90505f8582610d3f9190612965565b90505f826103e889610d519190612965565b610d5b9190612a03565b90508082610d6991906129d3565b955050505050509392505050565b5f805f8373ffffffffffffffffffffffffffffffffffffffff1673ffffffffffffffffffffffffffffffffffffffff1681526020019081526020015f20549050919050565b5f610dc56105b0565b905090565b804267ffffffffffffffff168167ffffffffffffffff161015610e2457806040517ff20357c3000000000000000000000000000000000000000000000000000000008152600401610e1b91906128b9565b60405180910390fd5b845f8103610e5e576040517f592cd3d200000000000000000000000000000000000000000000000000000000815260040160405180910390fd5b845f8103610e98576040517f592cd3d200000000000000000000000000000000000000000000000000000000815260040160405180910390fd5b845f8103610ed2576040517f592cd3d200000000000000000000000000000000000000000000000000000000815260040160405180910390fd5b5f610edb610dbc565b7f000000000000000000000000000000000000000000000000000000000000000073ffffffffffffffffffffffffffffffffffffffff166370a08231306040518263ffffffff1660e01b8152600401610f3491906124ed565b602060405180830381865afa158015610f4f573d5f803e3d5ffd5b505050506040513d601f19601f82011682018060405250810190610f7391906128e6565b8a610f7e9190612965565b610f8891906129d3565b90505f610f93610dbc565b7f000000000000000000000000000000000000000000000000000000000000000073ffffffffffffffffffffffffffffffffffffffff166370a08231306040518263ffffffff1660e01b8152600401610fec91906124ed565b602060405180830381865afa158015611007573d5f803e3d5ffd5b505050506040513d601f19601f8201168201806040525081019061102b91906128e6565b8b6110369190612965565b61104091906129d3565b9050888210156110895781896040517ffeb54daf000000000000000000000000000000000000000000000000000000008152600401611080929190612911565b60405180910390fd5b878110156110d05780886040517ffeb54daf0000000000000000000000000000000000000000000000000000000081526004016110c7929190612911565b60405180910390fd5b6110da338b611bf0565b3373ffffffffffffffffffffffffffffffffffffffff167f96cd817c6329656790ef8fba7675405193677d39619571282f5e21f3a98cd0598383604051611122929190612911565b60405180910390a261117533837f000000000000000000000000000000000000000000000000000000000000000073ffffffffffffffffffffffffffffffffffffffff16611c6f9092919063ffffffff16565b6111c033827f000000000000000000000000000000000000000000000000000000000000000073ffffffffffffffffffffffffffffffffffffffff16611c6f9092919063ffffffff16565b50505050505050505050565b5f61130e670de0b6b3a76400007f000000000000000000000000000000000000000000000000000000000000000073ffffffffffffffffffffffffffffffffffffffff166370a08231306040518263ffffffff1660e01b815260040161123291906124ed565b602060405180830381865afa15801561124d573d5f803e3d5ffd5b505050506040513d601f19601f8201168201806040525081019061127191906128e6565b7f000000000000000000000000000000000000000000000000000000000000000073ffffffffffffffffffffffffffffffffffffffff166370a08231306040518263ffffffff1660e01b81526004016112ca91906124ed565b602060405180830381865afa1580156112e5573d5f803e3d5ffd5b505050506040513d601f19601f8201168201806040525081019061130991906128e6565b610cac565b905090565b6060600480546113229061287a565b80601f016020809104026020016040519081016040528092919081815260200182805461134e9061287a565b80156113995780601f1061137057610100808354040283529160200191611399565b820191905f5260205f20905b81548152906001019060200180831161137c57829003601f168201915b5050505050905090565b5f806113ad6117c8565b90506113ba818585611873565b600191505092915050565b5f611507670de0b6b3a76400007f000000000000000000000000000000000000000000000000000000000000000073ffffffffffffffffffffffffffffffffffffffff166370a08231306040518263ffffffff1660e01b815260040161142b91906124ed565b602060405180830381865afa158015611446573d5f803e3d5ffd5b505050506040513d601f19601f8201168201806040525081019061146a91906128e6565b7f000000000000000000000000000000000000000000000000000000000000000073ffffffffffffffffffffffffffffffffffffffff166370a08231306040518263ffffffff1660e01b81526004016114c391906124ed565b602060405180830381865afa1580156114de573d5f803e3d5ffd5b505050506040513d601f19601f8201168201806040525081019061150291906128e6565b610cac565b905090565b5f7f0000000000000000000000000000000000000000000000000000000000000000905090565b5f60015f8473ffffffffffffffffffffffffffffffffffffffff1673ffffffffffffffffffffffffffffffffffffffff1681526020019081526020015f205f8373ffffffffffffffffffffffffffffffffffffffff1673ffffffffffffffffffffffffffffffffffffffff1681526020019081526020015f2054905092915050565b5f807f000000000000000000000000000000000000000000000000000000000000000073ffffffffffffffffffffffffffffffffffffffff166370a08231306040518263ffffffff1660e01b815260040161161091906124ed565b602060405180830381865afa15801561162b573d5f803e3d5ffd5b505050506040513d601f19601f8201168201806040525081019061164f91906128e6565b90505f7f000000000000000000000000000000000000000000000000000000000000000073ffffffffffffffffffffffffffffffffffffffff166370a08231306040518263ffffffff1660e01b81526004016116ab91906124ed565b602060405180830381865afa1580156116c6573d5f803e3d5ffd5b505050506040513d601f19601f820116820180604052508101906116ea91906128e6565b90508082856116f99190612965565b61170391906129d3565b92505050919050565b5f835f8103611747576040517f592cd3d200000000000000000000000000000000000000000000000000000000815260040160405180910390fd5b825f8103611781576040517f592cd3d200000000000000000000000000000000000000000000000000000000815260040160405180910390fd5b6103e586856117909190612a36565b61179a9190612965565b61271087876117a99190612965565b6117b39190612965565b6117bd91906129d3565b925050509392505050565b5f33905090565b6117dc8383836001611cee565b505050565b5f6117ec8484611533565b90507fffffffffffffffffffffffffffffffffffffffffffffffffffffffffffffffff811461186d578181101561185e578281836040517ffb8f41b200000000000000000000000000000000000000000000000000000000815260040161185593929190612a69565b60405180910390fd5b61186c84848484035f611cee565b5b50505050565b5f73ffffffffffffffffffffffffffffffffffffffff168373ffffffffffffffffffffffffffffffffffffffff16036118e3575f6040517f96c6fd1e0000000000000000000000000000000000000000000000000000000081526004016118da91906124ed565b60405180910390fd5b5f73ffffffffffffffffffffffffffffffffffffffff168273ffffffffffffffffffffffffffffffffffffffff1603611953575f6040517fec442f0500000000000000000000000000000000000000000000000000000000815260040161194a91906124ed565b60405180910390fd5b61195e838383611ebd565b505050565b61196c846120d6565b8061197c575061197b826120d6565b5b806119b257508173ffffffffffffffffffffffffffffffffffffffff168473ffffffffffffffffffffffffffffffffffffffff16145b156119e9576040517ffa2d969200000000000000000000000000000000000000000000000000000000815260040160405180910390fd5b60055f8154809291906119fb90612a9e565b9190505550600a60055410611a45575f600581905550611a4433670de0b6b3a76400008473ffffffffffffffffffffffffffffffffffffffff16611c6f9092919063ffffffff16565b5b3373ffffffffffffffffffffffffffffffffffffffff167f5380cf97d8f645d3c4896da60c053458dca03a3a31cec642ac80e1ddf0d8d02a85858585604051611a919493929190612b40565b60405180910390a2611ac63330858773ffffffffffffffffffffffffffffffffffffffff16612196909392919063ffffffff16565b611af133828473ffffffffffffffffffffffffffffffffffffffff16611c6f9092919063ffffffff16565b50505050565b611b013382612218565b3373ffffffffffffffffffffffffffffffffffffffff167fac1d76749e5447b7b16f5ab61447e1bd502f3bb4807af3b28e620d1700a6ee458385604051611b49929190612911565b60405180910390a2611b9e3330857f000000000000000000000000000000000000000000000000000000000000000073ffffffffffffffffffffffffffffffffffffffff16612196909392919063ffffffff16565b611beb3330847f000000000000000000000000000000000000000000000000000000000000000073ffffffffffffffffffffffffffffffffffffffff16612196909392919063ffffffff16565b505050565b5f73ffffffffffffffffffffffffffffffffffffffff168273ffffffffffffffffffffffffffffffffffffffff1603611c60575f6040517f96c6fd1e000000000000000000000000000000000000000000000000000000008152600401611c5791906124ed565b60405180910390fd5b611c6b825f83611ebd565b5050565b611ce9838473ffffffffffffffffffffffffffffffffffffffff1663a9059cbb8585604051602401611ca2929190612b83565b604051602081830303815290604052915060e01b6020820180517bffffffffffffffffffffffffffffffffffffffffffffffffffffffff8381831617835250505050612297565b505050565b5f73ffffffffffffffffffffffffffffffffffffffff168473ffffffffffffffffffffffffffffffffffffffff1603611d5e575f6040517fe602df05000000000000000000000000000000000000000000000000000000008152600401611d5591906124ed565b60405180910390fd5b5f73ffffffffffffffffffffffffffffffffffffffff168373ffffffffffffffffffffffffffffffffffffffff1603611dce575f6040517f94280d62000000000000000000000000000000000000000000000000000000008152600401611dc591906124ed565b60405180910390fd5b8160015f8673ffffffffffffffffffffffffffffffffffffffff1673ffffffffffffffffffffffffffffffffffffffff1681526020019081526020015f205f8573ffffffffffffffffffffffffffffffffffffffff1673ffffffffffffffffffffffffffffffffffffffff1681526020019081526020015f20819055508015611eb7578273ffffffffffffffffffffffffffffffffffffffff168473ffffffffffffffffffffffffffffffffffffffff167f8c5be1e5ebec7d5bd14f71427d1e84f3dd0314c0f7b2291e5b200ac8c7c3b92584604051611eae9190612515565b60405180910390a35b50505050565b5f73ffffffffffffffffffffffffffffffffffffffff168373ffffffffffffffffffffffffffffffffffffffff1603611f0d578060025f828254611f019190612a03565b92505081905550611fdb565b5f805f8573ffffffffffffffffffffffffffffffffffffffff1673ffffffffffffffffffffffffffffffffffffffff1681526020019081526020015f2054905081811015611f96578381836040517fe450d38c000000000000000000000000000000000000000000000000000000008152600401611f8d93929190612a69565b60405180910390fd5b8181035f808673ffffffffffffffffffffffffffffffffffffffff1673ffffffffffffffffffffffffffffffffffffffff1681526020019081526020015f2081905550505b5f73ffffffffffffffffffffffffffffffffffffffff168273ffffffffffffffffffffffffffffffffffffffff1603612022578060025f828254039250508190555061206c565b805f808473ffffffffffffffffffffffffffffffffffffffff1673ffffffffffffffffffffffffffffffffffffffff1681526020019081526020015f205f82825401925050819055505b8173ffffffffffffffffffffffffffffffffffffffff168373ffffffffffffffffffffffffffffffffffffffff167fddf252ad1be2c89b69c2b068fc378daa952ba7f163c4a11628f55a4df523b3ef836040516120c99190612515565b60405180910390a3505050565b5f7f000000000000000000000000000000000000000000000000000000000000000073ffffffffffffffffffffffffffffffffffffffff168273ffffffffffffffffffffffffffffffffffffffff161415801561217f57507f000000000000000000000000000000000000000000000000000000000000000073ffffffffffffffffffffffffffffffffffffffff168273ffffffffffffffffffffffffffffffffffffffff1614155b1561218d5760019050612191565b5f90505b919050565b612212848573ffffffffffffffffffffffffffffffffffffffff166323b872dd8686866040516024016121cb93929190612baa565b604051602081830303815290604052915060e01b6020820180517bffffffffffffffffffffffffffffffffffffffffffffffffffffffff8381831617835250505050612297565b50505050565b5f73ffffffffffffffffffffffffffffffffffffffff168273ffffffffffffffffffffffffffffffffffffffff1603612288575f6040517fec442f0500000000000000000000000000000000000000000000000000000000815260040161227f91906124ed565b60405180910390fd5b6122935f8383611ebd565b5050565b5f8060205f8451602086015f885af1806122b6576040513d5f823e3d81fd5b3d92505f519150505f82146122cf5760018114156122ea565b5f8473ffffffffffffffffffffffffffffffffffffffff163b145b1561232c57836040517f5274afe700000000000000000000000000000000000000000000000000000000815260040161232391906124ed565b60405180910390fd5b50505050565b5f81519050919050565b5f82825260208201905092915050565b5f5b8381101561236957808201518184015260208101905061234e565b5f8484015250505050565b5f601f19601f8301169050919050565b5f61238e82612332565b612398818561233c565b93506123a881856020860161234c565b6123b181612374565b840191505092915050565b5f6020820190508181035f8301526123d48184612384565b905092915050565b5f80fd5b5f73ffffffffffffffffffffffffffffffffffffffff82169050919050565b5f612409826123e0565b9050919050565b612419816123ff565b8114612423575f80fd5b50565b5f8135905061243481612410565b92915050565b5f819050919050565b61244c8161243a565b8114612456575f80fd5b50565b5f8135905061246781612443565b92915050565b5f8060408385031215612483576124826123dc565b5b5f61249085828601612426565b92505060206124a185828601612459565b9150509250929050565b5f8115159050919050565b6124bf816124ab565b82525050565b5f6020820190506124d85f8301846124b6565b92915050565b6124e7816123ff565b82525050565b5f6020820190506125005f8301846124de565b92915050565b61250f8161243a565b82525050565b5f6020820190506125285f830184612506565b92915050565b5f805f60608486031215612545576125446123dc565b5b5f61255286828701612426565b935050602061256386828701612426565b925050604061257486828701612459565b9150509250925092565b5f60ff82169050919050565b6125938161257e565b82525050565b5f6020820190506125ac5f83018461258a565b92915050565b5f602082840312156125c7576125c66123dc565b5b5f6125d484828501612459565b91505092915050565b5f6125e7826123ff565b9050919050565b6125f7816125dd565b8114612601575f80fd5b50565b5f81359050612612816125ee565b92915050565b5f67ffffffffffffffff82169050919050565b61263481612618565b811461263e575f80fd5b50565b5f8135905061264f8161262b565b92915050565b5f805f805f60a0868803121561266e5761266d6123dc565b5b5f61267b88828901612604565b955050602061268c88828901612459565b945050604061269d88828901612604565b93505060606126ae88828901612459565b92505060806126bf88828901612641565b9150509295509295909350565b5f805f80608085870312156126e4576126e36123dc565b5b5f6126f187828801612459565b945050602061270287828801612459565b935050604061271387828801612459565b925050606061272487828801612641565b91505092959194509250565b5f805f8060808587031215612748576127476123dc565b5b5f61275587828801612604565b945050602061276687828801612604565b935050604061277787828801612459565b925050606061278887828801612641565b91505092959194509250565b5f805f606084860312156127ab576127aa6123dc565b5b5f6127b886828701612459565b93505060206127c986828701612459565b92505060406127da86828701612459565b9150509250925092565b5f602082840312156127f9576127f86123dc565b5b5f61280684828501612426565b91505092915050565b5f8060408385031215612825576128246123dc565b5b5f61283285828601612426565b925050602061284385828601612426565b9150509250929050565b7f4e487b71000000000000000000000000000000000000000000000000000000005f52602260045260245ffd5b5f600282049050600182168061289157607f821691505b6020821081036128a4576128a361284d565b5b50919050565b6128b381612618565b82525050565b5f6020820190506128cc5f8301846128aa565b92915050565b5f815190506128e081612443565b92915050565b5f602082840312156128fb576128fa6123dc565b5b5f612908848285016128d2565b91505092915050565b5f6040820190506129245f830185612506565b6129316020830184612506565b9392505050565b7f4e487b71000000000000000000000000000000000000000000000000000000005f52601160045260245ffd5b5f61296f8261243a565b915061297a8361243a565b92508282026129888161243a565b9150828204841483151761299f5761299e612938565b5b5092915050565b7f4e487b71000000000000000000000000000000000000000000000000000000005f52601260045260245ffd5b5f6129dd8261243a565b91506129e88361243a565b9250826129f8576129f76129a6565b5b828204905092915050565b5f612a0d8261243a565b9150612a188361243a565b9250828201905080821115612a3057612a2f612938565b5b92915050565b5f612a408261243a565b9150612a4b8361243a565b9250828203905081811115612a6357612a62612938565b5b92915050565b5f606082019050612a7c5f8301866124de565b612a896020830185612506565b612a966040830184612506565b949350505050565b5f612aa88261243a565b91507fffffffffffffffffffffffffffffffffffffffffffffffffffffffffffffffff8203612ada57612ad9612938565b5b600182019050919050565b5f819050919050565b5f612b08612b03612afe846123e0565b612ae5565b6123e0565b9050919050565b5f612b1982612aee565b9050919050565b5f612b2a82612b0f565b9050919050565b612b3a81612b20565b82525050565b5f608082019050612b535f830187612b31565b612b606020830186612506565b612b6d6040830185612b31565b612b7a6060830184612506565b95945050505050565b5f604082019050612b965f8301856124de565b612ba36020830184612506565b9392505050565b5f606082019050612bbd5f8301866124de565b612bca60208301856124de565b612bd76040830184612506565b94935050505056fea2646970667358221220dc7d133ee7c2a6ec3abd9f2361145d37593674f28eb6a8784a551fe22712b6a864736f6c63430008140033","linkReferences":{}},"methodIdentifiers":{"allowance(address,address)":"dd62ed3e","approve(address,uint256)":"095ea7b3","balanceOf(address)":"70a08231","decimals()":"313ce567","deposit(uint256,uint256,uint256,uint64)":"4b785efe","getInputAmountBasedOnOutput(uint256,uint256,uint256)":"ff792c96","getMinimumWethDepositAmount()":"3f163cdf","getOutputAmountBasedOnInput(uint256,uint256,uint256)":"6b3c4779","getPoolToken()":"dc0374d1","getPoolTokensToDepositBasedOnWeth(uint256)":"e29e0378","getPriceOfOnePoolTokenInWeth()":"b7e7fdcc","getPriceOfOneWethInPoolTokens()":"8fd78242","getWeth()":"107c279f","name()":"06fdde03","sellPoolTokens(uint256)":"35e6bf53","swapExactInput(address,uint256,address,uint256,uint64)":"3dd5e20d","swapExactOutput(address,address,uint256,uint64)":"4e6d9df8","symbol()":"95d89b41","totalLiquidityTokenSupply()":"85b29438","totalSupply()":"18160ddd","transfer(address,uint256)":"a9059cbb","transferFrom(address,address,uint256)":"23b872dd","withdraw(uint256,uint256,uint256,uint64)":"8933da3a"},"id":39}